:020000040800F2
:1000000010040020A9010008B1010008B301000894
:10001000B5010008B7010008B901000800000000A0
:10002000000000000000000000000000BB0100080C
:10003000BD01000800000000BF010008C101000868
:10004000C3010008C3010008C3010008C301000880
:10005000C3010008C3010008C3010008C301000870
:10006000C3010008C3010008C3010008C301000860
:10007000C3010008C3010008C3010008C301000850
:10008000C3010008C3010008C3010008000000000C
:10009000000000000000000000000000C301000894
:1000A000C3010008C3010008C3010008C301000820
:1000B000C3010008C3010008C3010008C301000810
:1000C000C3010008C3010008C3010008C301000800
:1000D000C3010008C3010008C301000800000000BC
:1000E000C3010008C3010008C301000800000000AC
:1000F000000000000000000000000000C301000834
:1001000000000000C3010008C3010008C30100088B
:1001100000000000000000000000000000000000DF
:10012000C3010008C3010008C3010008C30100089F
:10013000C3010008000000000000000000000000F3
:10014000000000000000000000000000C3010008E3
:10015000C3010008C3010008C3010008C30100086F
:10016000C3010008C30100080000000000000000F7
:10017000000000000000000000000000000000007F
:1001800000000000C30100080000000000000000A3
:10019000C3010008DFF80CD000F018F80048004751
:1001A0002709000810040020064880470648004739
:1001B000FEE7FEE7FEE7FEE7FEE7FEE7FEE7FEE717
:1001C000FEE7FEE7B506000895010008064C074D5E
:1001D00006E0E06840F0010394E807009847103417
:1001E000AC42F6D3FFF7DAFF3409000854090008DF
:1001F000F0B50A4600210023002400BF3DE00125A0
:1002000005FA01F3156805EA03049C4234D1056838
:100210004F000326BE40B543056015794E00B5403A
:100220000668354305601579012D02D01579022D38
:1002300016D185684F000326BE40B54385605579C9
:100240004E00B540866835438560456801268E407E
:10025000B5434560456896798E40B6B235434560F2
:10026000C5684F000326BE40B543C560D5794E0032
:10027000B540C6683543C560491C1029BFD3F0BDE1
:10028000F0B5002300244D07ED0E02FA05F3CE1061
:1002900000F1200555F826504E07F70E0F26BE40F8
:1002A000B543CF1000F1200646F82750CE1000F1DC
:1002B000200555F8265045EA0304CE1000F120052C
:1002C00045F82640F0BD000070B5002100230F2244
:1002D000C4781CB3174C246804F4E064C4F5E064EB
:1002E000C4F30721C1F10404E3B20A4144789C40FD
:1002F000E1B28478144021430C07210E0E4C05789E
:100300006155047804F01F050124AC4005786D1197
:10031000AD0005F1E025C5F8004109E0047804F0DE
:100320001F050124AC40054D0678761145F826409E
:1003300070BD00000CED00E000E400E080E100E0B2
:1003400002490143024A1160704700000000FA05AB
:100350000CED00E000B58BB00121084600F056F826
:10036000204800F0E7F90020ADF82800ADF82200A1
:1003700042F20F70099041F61F40ADF820000020B6
:100380008DF82A000121084600F030F802208DF88F
:100390001C0000208DF81E004FF480700690002095
:1003A0008DF81F0002208DF81D0006A90E48FFF7EA
:1003B0001FFF01A800F002FA6020ADF80400002041
:1003C000ADF812000120ADF8060041F2873003902D
:1003D00001A9044800F0B4F90121024800F09EF997
:1003E0000BB000BD000001400000024029B1064AE8
:1003F00012680243044B1A6004E0034A1268824305
:10040000014B1A60704700003038024029B1064A9B
:1004100012680243044B1A6004E0034A12688243E4
:10042000014B1A607047000044380240F0B50021CB
:1004300000220024022500260223324F3F6807F0E5
:100440000C0121B1042905D0082937D105E02E4F30
:10045000076036E02D4F076033E02A4F3F1F3F68AB
:10046000C7F38056274F3F1F3F6807F03F036EB129
:10047000264FB7FBF3F7DFF88CC0ACF1040CDCF8C7
:1004800000C0CCF3881C07FB0CF40CE01E4FB7FB3C
:10049000F3F7DFF870C0ACF1040CDCF800C0CCF36B
:1004A000881C07FB0CF4174F3F1F3F68C7F3014739
:1004B0007F1C7D00B4FBF5F7076002E0124F076078
:1004C00000BF00BF0F4F3F6807F0F0010909104F50
:1004D0007A5C0768D74047600A4F3F6807F4E051ED
:1004E000890A0B4F7A5C4768D7408760054F3F68A1
:1004F00007F46041490B064F7A5C4768D740C760F4
:10050000F0BD0000083802400024F40040787D016E
:100510000000002000B587B001211020FFF776FF12
:100520004FF4165003900020ADF818000C20ADF8E1
:1005300016000020ADF81400ADF81200ADF8100060
:1005400003A9204800F076F9072209211E48FFF789
:1005500097FE07220A211C48FFF792FE0121084658
:10056000FFF744FF02208DF8080000208DF80A00F4
:100570004FF4C060019001208DF80B0002208DF82F
:10058000090001A91048FFF733FE012240F225516E
:100590000C4800F029F94FF4A060FFF7D1FE2520A8
:1005A0008DF8000001208DF803008DF801008DF812
:1005B00002006846FFF788FE0121024800F008F9B2
:1005C00007B000BD00100140000002400CB5002043
:1005D000019000903348006840F480303149086051
:1005E00000BF3048006800F4003000900198401CC3
:1005F0000190009818B90198B0F5A04FF1D12948A1
:10060000006800F4003010B10120009001E00020EB
:1006100000900098012844D122484030006840F002
:1006200080502049403108601F48006840F4404035
:100630001D4908601B48083000681A4908310860E5
:100640000846006808600846006840F4805008606A
:100650001648091F0860081F006840F08070091FD5
:10066000086000BF0F48006800F000700028F9D053
:1006700040F202700E4908600A480830006820F015
:1006800003000849083108600846006840F002008D
:10069000086000BF03480830006800F00C0008281C
:1006A000F8D10CBD003802400070004019544107D9
:1006B000003C024010B51548006840F47000134932
:1006C00008601348006840F00100114908600020EC
:1006D0000F49083108600E4800680E4908400C496F
:1006E00008600D48091D0860081F006820F480207C
:1006F000091F0860002006490C310860FFF766FFFB
:100700004FF0006001498039086010BD88ED00E0BD
:1007100000380240FFFFF6FE1030002421B10288AD
:1007200042F00102028004E002884FF6FE731A4094
:100730000280704701894FF6F872114001817047BD
:1007400070B5002400220023058C4FF6FE7635405C
:100750000584028C8388048B4FF68F752C40B51E60
:100760002C400D882C43751E2A408D892A434D88C4
:100770002A43104DA84202D00F4DA84213D14FF684
:10078000F7752A40CD892A434FF6FB752A408D889C
:100790002A434FF6FF652B404FF6FF552B400D8A3D
:1007A0002B434D8A2B43838004838D6845630284E9
:1007B00070BD0000000001400004014000210180E4
:1007C0004180818081608181C18101824182704745
:1007D00021B1828942F40052828104E082894DF67F
:1007E000FF731A4082817047F0B50346002400264B
:1007F0000025002040F66A17B94200D100BF184614
:10080000C1F3421401F01F06012707FA06F5012C77
:1008100001D10C3004E0022C01D1103000E0143082
:100820001AB107682F43076002E00768AF4307600B
:10083000F0BD00002DE9FF4705460E460024A14605
:1008400000BFA046B08900B100BF2C8A24F44054F8
:10085000F08804432C82AC8941F20C608443B08858
:1008600031890843718908430443AC81AC8A24F47C
:100870004074B0890443AC826846FFF7D7FD204836
:10088000854202D01F48854202D1DDF80C9001E07C
:10089000DDF80890A88900F4004040B109EBC900D8
:1008A00000EB091031684900B0FBF1F707E009EBF4
:1008B000C90000EB091031688900B0FBF1F7642032
:1008C000B7FBF0F004012009642101FB1078A8892E
:1008D00000F4004040B1322000EBC800B0FBF1F062
:1008E00000F00700044308E0322000EB0810642108
:1008F000B0FBF1F000F00F0004432C81BDE8FF874E
:10090000001001400014014002E008C8121F08C195
:10091000002AFAD170477047002001E001C1121F80
:10092000002AFBD17047FFF7F5FDFFF713FD00BF6D
:10093000FEE700005409000800000020100000003D
:1009400008090008640900081000002000040000E5
:10095000180900080000000001020304010203045A
:040960000607080975
:040000050800019559
:00000001FF
