:020000040800F2
:1000000000040020A9010008B1010008B3010008A4
:10001000B5010008B7010008B901000800000000A0
:10002000000000000000000000000000BB0100080C
:10003000BD01000800000000BF010008C101000868
:10004000C3010008C3010008C3010008C301000880
:10005000C3010008C3010008C3010008C301000870
:10006000C3010008C3010008C3010008C301000860
:10007000C3010008C3010008C3010008C301000850
:10008000C3010008C3010008C3010008000000000C
:10009000000000000000000000000000C301000894
:1000A000C3010008C3010008C3010008C301000820
:1000B000C3010008C3010008C3010008C301000810
:1000C000C3010008C3010008C3010008C301000800
:1000D000C3010008C3010008C301000800000000BC
:1000E000C3010008C3010008C301000800000000AC
:1000F000000000000000000000000000C301000834
:1001000000000000C3010008C3010008C30100088B
:1001100000000000000000000000000000000000DF
:10012000C3010008C3010008C3010008C30100089F
:10013000C3010008000000000000000000000000F3
:10014000000000000000000000000000C3010008E3
:10015000C3010008C3010008C3010008C30100086F
:10016000C3010008C30100080000000000000000F7
:10017000000000000000000000000000000000007F
:1001800000000000C30100080000000000000000A3
:10019000C3010008DFF80CD000F018F80048004751
:1001A0001504000800040020064880470648004760
:1001B000FEE7FEE7FEE7FEE7FEE7FEE7FEE7FEE717
:1001C000FEE7FEE78D03000895010008064C074D89
:1001D00006E0E06840F0010394E807009847103417
:1001E000AC42F6D3FFF7DAFF6C0400087C04000889
:1001F000F0B50A4600210023002400BF3DE00125A0
:1002000005FA01F3156805EA03049C4234D1056838
:100210004F000326BE40B543056015794E00B5403A
:100220000668354305601579012D02D01579022D38
:1002300016D185684F000326BE40B54385605579C9
:100240004E00B540866835438560456801268E407E
:10025000B5434560456896798E40B6B235434560F2
:10026000C5684F000326BE40B543C560D5794E0032
:10027000B540C6683543C560491C1029BFD3F0BDE1
:100280008161704729B1064A12680243044B1A6023
:1002900004E0034A12688243014B1A607047000071
:1002A000303802400CB500200190009033480068BF
:1002B00040F480303149086000BF3048006800F4E5
:1002C000003000900198401C0190009818B90198E6
:1002D000B0F5A04FF1D12948006800F4003010B10A
:1002E0000120009001E0002000900098012844D1F6
:1002F00022484030006840F080502049403108607A
:100300001F48006840F440401D4908601B48083001
:1003100000681A4908310860084600680860084605
:10032000006840F4805008601648091F0860081FE4
:10033000006840F08070091F086000BF0F48006827
:1003400000F000700028F9D040F202700E490860F9
:100350000A480830006820F00300084908310860A6
:100360000846006840F00200086000BF03480830FB
:10037000006800F00C000828F8D10CBD00380240DD
:100380000070004019544107003C024010B5154868
:10039000006840F47000134908601348006840F09A
:1003A00001001149086000200F49083108600E481B
:1003B00000680E4908400C4908600D48091D086096
:1003C000081F006820F48020091F086000200649EB
:1003D0000C310860FFF766FF4FF00060014980397B
:1003E000086010BD88ED00E000380240FFFFF6FE17
:1003F0001030002402E008C8121F08C1002AFAD1F8
:1004000070477047002001E001C1121F002AFBD194
:10041000704700001CB501210846FFF733FF01219A
:100420000220FFF72FFF01208DF80400202000900C
:1004300002208DF8050000208DF806008DF80700D9
:1004400069460848FFF7D4FE4FF400500090694613
:100450000548FFF7CDFE20210248FFF711FF00BF3E
:10046000FEE7000000000240000402407C04000897
:0C0470000000002000040000040400084C
:040000050800019559
:00000001FF
