:020000040800F2
:1000000010040020AD010008B5010008B701000888
:10001000B9010008BB010008BD0100080000000094
:10002000000000000000000000000000BF01000808
:10003000C101000800000000C3010008C50100085C
:10004000C7010008C7010008C7010008C701000870
:10005000C7010008C7010008C7010008C701000860
:10006000C7010008C7010008C7010008C701000850
:10007000C7010008C7010008C7010008C701000840
:10008000C7010008C7010008C70100080000000000
:10009000000000000000000000000000C701000890
:1000A000C7010008C7010008C7010008C701000810
:1000B000C7010008C7010008C7010008C701000800
:1000C000C7010008C7010008C7010008C7010008F0
:1000D000C7010008C7010008C701000800000000B0
:1000E000C7010008C7010008C701000800000000A0
:1000F000000000000000000000000000C701000830
:1001000000000000C7010008C7010008C70100087F
:1001100000000000000000000000000000000000DF
:10012000C7010008C7010008C7010008C70100088F
:10013000C7010008000000000000000000000000EF
:10014000000000000000000000000000C7010008DF
:10015000C7010008C7010008C7010008C70100085F
:10016000C7010008C70100080000000000000000EF
:10017000000000000000000000000000000000007F
:1001800000000000C701000800000000000000009F
:10019000C7010008DFF810D000F01AF80048004747
:1001A00071080008AFF30080100400200648804763
:1001B00006480047FEE7FEE7FEE7FEE7FEE7FEE74C
:1001C000FEE7FEE7FEE7FEE7A90600089501000846
:1001D000064C074D06E0E06840F0010394E8070094
:1001E00098471034AC42F6D3FFF7D8FF88080008D0
:1001F000A8080008F0B50A4600210023002400BF2B
:100200003DE0012505FA01F3156805EA03049C4267
:1002100034D105684F000326BE40B543056015790B
:100220004E00B5400668354305601579012D02D0B2
:100230001579022D16D185684F000326BE40B543BF
:10024000856055794E00B5408668354385604568C0
:1002500001268E40B5434560456896798E40B6B21A
:1002600035434560C5684F000326BE40B543C560B1
:10027000D5794E00B540C6683543C560491C102984
:10028000BFD3F0BDF0B5002300244D07ED0E02FAF8
:1002900005F3CE1000F1200555F826504E07F70E55
:1002A0000F26BE40B543CF1000F1200646F8275078
:1002B000CE1000F1200555F8265045EA0304CE1073
:1002C00000F1200545F82640F0BD8161704700002F
:1002D0001CB504460121084600F070F801210220F7
:1002E00000F06CF801208DF804002020009002201E
:1002F0008DF8050000208DF806008DF8070069468E
:100300000948FFF777FF4FF400500090694607480F
:10031000FFF770FF20210448FFF7D7FF4FF400518B
:100320000248FFF7D2FF1CBD00000240000402405B
:1003300070B5002100230F22C4781CB3174C246829
:1003400004F4E064C4F5E064C4F30721C1F10404DB
:10035000E3B20A4144789C40E1B2847814402143DE
:100360000C07210E0E4C05786155047804F01F052A
:100370000124AC4005786D11AD0005F1E025C5F80C
:10038000004109E0047804F01F050124AC40054D4C
:100390000678761145F8264070BD00000CED00E0AF
:1003A00000E400E080E100E002490143024A1160FC
:1003B000704700000000FA050CED00E029B1064A84
:1003C00012680243044B1A6004E0034A1268824335
:1003D000014B1A60704700003038024029B1064ACC
:1003E00012680243044B1A6004E0034A1268824315
:1003F000014B1A607047000044380240F0B50021FC
:1004000000220024022500260223324F3F6807F015
:100410000C0121B1042905D0082937D105E02E4F60
:10042000076036E02D4F076033E02A4F3F1F3F68DB
:10043000C7F38056274F3F1F3F6807F03F036EB159
:10044000264FB7FBF3F7DFF88CC0ACF1040CDCF8F7
:1004500000C0CCF3881C07FB0CF40CE01E4FB7FB6C
:10046000F3F7DFF870C0ACF1040CDCF800C0CCF39B
:10047000881C07FB0CF4174F3F1F3F68C7F3014769
:100480007F1C7D00B4FBF5F7076002E0124F0760A8
:1004900000BF00BF0F4F3F6807F0F0010909104F80
:1004A0007A5C0768D74047600A4F3F6807F4E0511D
:1004B000890A0B4F7A5C4768D7408760054F3F68D1
:1004C00007F46041490B064F7A5C4768D740C76024
:1004D000F0BD0000083802400024F40040787D019F
:1004E0000000002000B587B001211020FFF776FF43
:1004F00001210220FFF762FF02208DF81800002082
:100500008DF81A008020059001208DF81B00032033
:100510008DF8190005A92848FFF76CFE02208DF818
:10052000180000208DF81A004020059001208DF859
:100530001B0003208DF8190005A91F48FFF75AFE7C
:10054000072206211C48FFF79DFE072211461A4884
:10055000FFF798FE4FF4165001900020ADF8100000
:100560000C20ADF80E000020ADF80C00ADF80A002C
:10057000ADF8080001A9114800F0FCF8012240F292
:1005800025510E4800F0D0F84FF4A060FFF70CFFA3
:1005900025208DF8000001208DF803008DF8010062
:1005A0008DF802006846FFF7C3FE0121034800F002
:1005B000AFF807B000BD0000000402400010014089
:1005C0000CB50020019000903348006840F4803062
:1005D0003149086000BF3048006800F400300090E6
:1005E0000198401C0190009818B90198B0F5A04FEF
:1005F000F1D12948006800F4003010B101200090CA
:1006000001E0002000900098012844D122484030A9
:10061000006840F080502049403108601F48006861
:1006200040F440401D4908601B48083000681A49E2
:10063000083108600846006808600846006840F411
:10064000805008601648091F0860081F006840F0C5
:100650008070091F086000BF0F48006800F000703C
:100660000028F9D040F202700E4908600A480830AC
:10067000006820F003000849083108600846006857
:1006800040F00200086000BF03480830006800F036
:100690000C000828F8D10CBD003802400070004062
:1006A00019544107003C024010B51548006840F459
:1006B0007000134908601348006840F001001149B8
:1006C000086000200F49083108600E4800680E4994
:1006D00008400C4908600D48091D0860081F0068A3
:1006E00020F48020091F0860002006490C310860B2
:1006F000FFF766FF4FF0006001498039086010BDC8
:1007000088ED00E000380240FFFFF6FE10300024C4
:1007100021B1828942F40052828104E082894DF63F
:10072000FF731A4082817047F0B50346002400260B
:100730000025002040F66A17B94200D100BF1846D4
:10074000C1F3421401F01F06012707FA06F5012C38
:1007500001D10C3004E0022C01D1103000E0143043
:100760001AB107682F43076002E00768AF430760CC
:10077000F0BD00002DE9FF4705460E460024A146C6
:1007800000BFA046B08900B100BF2C8A24F44054B9
:10079000F08804432C82AC8941F20C608443B08819
:1007A00031890843718908430443AC81AC8A24F43D
:1007B0004074B0890443AC826846FFF71FFE2048AE
:1007C000854202D01F48854202D1DDF80C9001E03D
:1007D000DDF80890A88900F4004040B109EBC90099
:1007E00000EB091031684900B0FBF1F707E009EBB5
:1007F000C90000EB091031688900B0FBF1F76420F3
:10080000B7FBF0F004012009642101FB1078A889EE
:1008100000F4004040B1322000EBC800B0FBF1F022
:1008200000F00700044308E0322000EB08106421C8
:10083000B0FBF1F000F00F0004432C81BDE8FF870E
:100840000010014000140140C1F30802828070478B
:1008500002E008C8121F08C1002AFAD17047704789
:10086000002001E001C1121F002AFBD170470000E7
:10087000FFF738FEFFF72CFD41210248FFF7E4FFA8
:1008800000BFFEE700100140A8080008000000209B
:100890001000000050080008B808000810000020F0
:1008A00000040000600800080000000001020304CA
:0808B000010203040607080918
:040000050800019559
:00000001FF
